{
  "_format": "hh-sol-artifact-1",
  "contractName": "Campaign",
  "sourceName": "contracts/Campaign.sol",
  "abi": [
    {
      "inputs": [
        {
          "internalType": "uint256",
          "name": "minimum",
          "type": "uint256"
        },
        {
          "internalType": "address",
          "name": "creator",
          "type": "address"
        }
      ],
      "stateMutability": "nonpayable",
      "type": "constructor"
    },
    {
      "inputs": [
        {
          "internalType": "uint256",
          "name": "index",
          "type": "uint256"
        }
      ],
      "name": "approveRequest",
      "outputs": [],
      "stateMutability": "nonpayable",
      "type": "function"
    },
    {
      "inputs": [
        {
          "internalType": "address",
          "name": "",
          "type": "address"
        }
      ],
      "name": "approvers",
      "outputs": [
        {
          "internalType": "bool",
          "name": "",
          "type": "bool"
        }
      ],
      "stateMutability": "view",
      "type": "function"
    },
    {
      "inputs": [],
      "name": "approversCount",
      "outputs": [
        {
          "internalType": "uint256",
          "name": "",
          "type": "uint256"
        }
      ],
      "stateMutability": "view",
      "type": "function"
    },
    {
      "inputs": [],
      "name": "contribute",
      "outputs": [],
      "stateMutability": "payable",
      "type": "function"
    },
    {
      "inputs": [
        {
          "internalType": "string",
          "name": "description",
          "type": "string"
        },
        {
          "internalType": "uint256",
          "name": "value",
          "type": "uint256"
        },
        {
          "internalType": "address payable",
          "name": "recipient",
          "type": "address"
        }
      ],
      "name": "createRequest",
      "outputs": [],
      "stateMutability": "nonpayable",
      "type": "function"
    },
    {
      "inputs": [
        {
          "internalType": "uint256",
          "name": "index",
          "type": "uint256"
        }
      ],
      "name": "finalizeRequest",
      "outputs": [],
      "stateMutability": "nonpayable",
      "type": "function"
    },
    {
      "inputs": [],
      "name": "manager",
      "outputs": [
        {
          "internalType": "address",
          "name": "",
          "type": "address"
        }
      ],
      "stateMutability": "view",
      "type": "function"
    },
    {
      "inputs": [],
      "name": "minimumContribution",
      "outputs": [
        {
          "internalType": "uint256",
          "name": "",
          "type": "uint256"
        }
      ],
      "stateMutability": "view",
      "type": "function"
    },
    {
      "inputs": [
        {
          "internalType": "uint256",
          "name": "",
          "type": "uint256"
        }
      ],
      "name": "requests",
      "outputs": [
        {
          "internalType": "string",
          "name": "description",
          "type": "string"
        },
        {
          "internalType": "uint256",
          "name": "value",
          "type": "uint256"
        },
        {
          "internalType": "address payable",
          "name": "recipient",
          "type": "address"
        },
        {
          "internalType": "bool",
          "name": "complete",
          "type": "bool"
        },
        {
          "internalType": "uint256",
          "name": "approvalCount",
          "type": "uint256"
        }
      ],
      "stateMutability": "view",
      "type": "function"
    }
  ],
  "bytecode": "0x60806040523480156200001157600080fd5b50604051620016633803806200166383398181016040528101906200003791906200012c565b80600160006101000a81548173ffffffffffffffffffffffffffffffffffffffff021916908373ffffffffffffffffffffffffffffffffffffffff16021790555081600281905550505062000173565b600080fd5b6000819050919050565b620000a1816200008c565b8114620000ad57600080fd5b50565b600081519050620000c18162000096565b92915050565b600073ffffffffffffffffffffffffffffffffffffffff82169050919050565b6000620000f482620000c7565b9050919050565b6200010681620000e7565b81146200011257600080fd5b50565b6000815190506200012681620000fb565b92915050565b6000806040838503121562000146576200014562000087565b5b60006200015685828601620000b0565b9250506020620001698582860162000115565b9150509250929050565b6114e080620001836000396000f3fe6080604052600436106100865760003560e01c806382fde0931161005957806382fde0931461015d5780638a9cfd5514610188578063937e09b1146101b1578063d7bb99ba146101dc578063d7d1bbdb146101e657610086565b8063034410061461008b5780630a144391146100b4578063481c6a75146100f157806381d12c581461011c575b600080fd5b34801561009757600080fd5b506100b260048036038101906100ad919061093d565b61020f565b005b3480156100c057600080fd5b506100db60048036038101906100d691906109c8565b6103fa565b6040516100e89190610a10565b60405180910390f35b3480156100fd57600080fd5b5061010661041a565b6040516101139190610a3a565b60405180910390f35b34801561012857600080fd5b50610143600480360381019061013e919061093d565b610440565b604051610154959493929190610b15565b60405180910390f35b34801561016957600080fd5b5061017261053b565b60405161017f9190610b6f565b60405180910390f35b34801561019457600080fd5b506101af60048036038101906101aa9190610ceb565b610541565b005b3480156101bd57600080fd5b506101c661067f565b6040516101d39190610b6f565b60405180910390f35b6101e4610685565b005b3480156101f257600080fd5b5061020d6004803603810190610208919061093d565b61073b565b005b600160009054906101000a900473ffffffffffffffffffffffffffffffffffffffff1673ffffffffffffffffffffffffffffffffffffffff163373ffffffffffffffffffffffffffffffffffffffff161461029f576040517f08c379a000000000000000000000000000000000000000000000000000000000815260040161029690610dcc565b60405180910390fd5b60008082815481106102b4576102b3610dec565b5b9060005260206000209060050201905060026004546102d39190610e79565b816003015411610318576040517f08c379a000000000000000000000000000000000000000000000000000000000815260040161030f90610f1c565b60405180910390fd5b8060020160149054906101000a900460ff161561036a576040517f08c379a000000000000000000000000000000000000000000000000000000000815260040161036190610fae565b60405180910390fd5b8060020160009054906101000a900473ffffffffffffffffffffffffffffffffffffffff1673ffffffffffffffffffffffffffffffffffffffff166108fc82600101549081150290604051600060405180830381858888f193505050501580156103d8573d6000803e3d6000fd5b5060018160020160146101000a81548160ff0219169083151502179055505050565b60036020528060005260406000206000915054906101000a900460ff1681565b600160009054906101000a900473ffffffffffffffffffffffffffffffffffffffff1681565b6000818154811061045057600080fd5b906000526020600020906005020160009150905080600001805461047390610ffd565b80601f016020809104026020016040519081016040528092919081815260200182805461049f90610ffd565b80156104ec5780601f106104c1576101008083540402835291602001916104ec565b820191906000526020600020905b8154815290600101906020018083116104cf57829003601f168201915b5050505050908060010154908060020160009054906101000a900473ffffffffffffffffffffffffffffffffffffffff16908060020160149054906101000a900460ff16908060030154905085565b60045481565b600160009054906101000a900473ffffffffffffffffffffffffffffffffffffffff1673ffffffffffffffffffffffffffffffffffffffff163373ffffffffffffffffffffffffffffffffffffffff16146105d1576040517f08c379a00000000000000000000000000000000000000000000000000000000081526004016105c890610dcc565b60405180910390fd5b60008060018160018154018082558091505003906000526020600020906005020190508381600001908161060591906111da565b50828160010181905550818160020160006101000a81548173ffffffffffffffffffffffffffffffffffffffff021916908373ffffffffffffffffffffffffffffffffffffffff16021790555060008160020160146101000a81548160ff0219169083151502179055506000816003018190555050505050565b60025481565b60025434116106c9576040517f08c379a00000000000000000000000000000000000000000000000000000000081526004016106c09061131e565b60405180910390fd5b6001600360003373ffffffffffffffffffffffffffffffffffffffff1673ffffffffffffffffffffffffffffffffffffffff16815260200190815260200160002060006101000a81548160ff021916908315150217905550600460008154809291906107349061133e565b9190505550565b60008082815481106107505761074f610dec565b5b90600052602060002090600502019050600360003373ffffffffffffffffffffffffffffffffffffffff1673ffffffffffffffffffffffffffffffffffffffff16815260200190815260200160002060009054906101000a900460ff166107ec576040517f08c379a00000000000000000000000000000000000000000000000000000000081526004016107e3906113f8565b60405180910390fd5b8060040160003373ffffffffffffffffffffffffffffffffffffffff1673ffffffffffffffffffffffffffffffffffffffff16815260200190815260200160002060009054906101000a900460ff161561087b576040517f08c379a00000000000000000000000000000000000000000000000000000000081526004016108729061148a565b60405180910390fd5b60018160040160003373ffffffffffffffffffffffffffffffffffffffff1673ffffffffffffffffffffffffffffffffffffffff16815260200190815260200160002060006101000a81548160ff0219169083151502179055508060030160008154809291906108ea9061133e565b91905055505050565b6000604051905090565b600080fd5b600080fd5b6000819050919050565b61091a81610907565b811461092557600080fd5b50565b60008135905061093781610911565b92915050565b600060208284031215610953576109526108fd565b5b600061096184828501610928565b91505092915050565b600073ffffffffffffffffffffffffffffffffffffffff82169050919050565b60006109958261096a565b9050919050565b6109a58161098a565b81146109b057600080fd5b50565b6000813590506109c28161099c565b92915050565b6000602082840312156109de576109dd6108fd565b5b60006109ec848285016109b3565b91505092915050565b60008115159050919050565b610a0a816109f5565b82525050565b6000602082019050610a256000830184610a01565b92915050565b610a348161098a565b82525050565b6000602082019050610a4f6000830184610a2b565b92915050565b600081519050919050565b600082825260208201905092915050565b60005b83811015610a8f578082015181840152602081019050610a74565b60008484015250505050565b6000601f19601f8301169050919050565b6000610ab782610a55565b610ac18185610a60565b9350610ad1818560208601610a71565b610ada81610a9b565b840191505092915050565b610aee81610907565b82525050565b6000610aff8261096a565b9050919050565b610b0f81610af4565b82525050565b600060a0820190508181036000830152610b2f8188610aac565b9050610b3e6020830187610ae5565b610b4b6040830186610b06565b610b586060830185610a01565b610b656080830184610ae5565b9695505050505050565b6000602082019050610b846000830184610ae5565b92915050565b600080fd5b600080fd5b7f4e487b7100000000000000000000000000000000000000000000000000000000600052604160045260246000fd5b610bcc82610a9b565b810181811067ffffffffffffffff82111715610beb57610bea610b94565b5b80604052505050565b6000610bfe6108f3565b9050610c0a8282610bc3565b919050565b600067ffffffffffffffff821115610c2a57610c29610b94565b5b610c3382610a9b565b9050602081019050919050565b82818337600083830152505050565b6000610c62610c5d84610c0f565b610bf4565b905082815260208101848484011115610c7e57610c7d610b8f565b5b610c89848285610c40565b509392505050565b600082601f830112610ca657610ca5610b8a565b5b8135610cb6848260208601610c4f565b91505092915050565b610cc881610af4565b8114610cd357600080fd5b50565b600081359050610ce581610cbf565b92915050565b600080600060608486031215610d0457610d036108fd565b5b600084013567ffffffffffffffff811115610d2257610d21610902565b5b610d2e86828701610c91565b9350506020610d3f86828701610928565b9250506040610d5086828701610cd6565b9150509250925092565b7f4f6e6c7920746865206d616e616765722063616e2063616c6c2074686973206660008201527f756e6374696f6e2e000000000000000000000000000000000000000000000000602082015250565b6000610db6602883610a60565b9150610dc182610d5a565b604082019050919050565b60006020820190508181036000830152610de581610da9565b9050919050565b7f4e487b7100000000000000000000000000000000000000000000000000000000600052603260045260246000fd5b7f4e487b7100000000000000000000000000000000000000000000000000000000600052601260045260246000fd5b7f4e487b7100000000000000000000000000000000000000000000000000000000600052601160045260246000fd5b6000610e8482610907565b9150610e8f83610907565b925082610e9f57610e9e610e1b565b5b828204905092915050565b7f5468652072657175657374206d7573742068617665206d6f7265207468616e2060008201527f35302520617070726f76616c732e000000000000000000000000000000000000602082015250565b6000610f06602e83610a60565b9150610f1182610eaa565b604082019050919050565b60006020820190508181036000830152610f3581610ef9565b9050919050565b7f54686520726571756573742068617320616c7265616479206265656e20636f6d60008201527f706c657465642e00000000000000000000000000000000000000000000000000602082015250565b6000610f98602783610a60565b9150610fa382610f3c565b604082019050919050565b60006020820190508181036000830152610fc781610f8b565b9050919050565b7f4e487b7100000000000000000000000000000000000000000000000000000000600052602260045260246000fd5b6000600282049050600182168061101557607f821691505b60208210810361102857611027610fce565b5b50919050565b60008190508160005260206000209050919050565b60006020601f8301049050919050565b600082821b905092915050565b6000600883026110907fffffffffffffffffffffffffffffffffffffffffffffffffffffffffffffffff82611053565b61109a8683611053565b95508019841693508086168417925050509392505050565b6000819050919050565b60006110d76110d26110cd84610907565b6110b2565b610907565b9050919050565b6000819050919050565b6110f1836110bc565b6111056110fd826110de565b848454611060565b825550505050565b600090565b61111a61110d565b6111258184846110e8565b505050565b5b818110156111495761113e600082611112565b60018101905061112b565b5050565b601f82111561118e5761115f8161102e565b61116884611043565b81016020851015611177578190505b61118b61118385611043565b83018261112a565b50505b505050565b600082821c905092915050565b60006111b160001984600802611193565b1980831691505092915050565b60006111ca83836111a0565b9150826002028217905092915050565b6111e382610a55565b67ffffffffffffffff8111156111fc576111fb610b94565b5b6112068254610ffd565b61121182828561114d565b600060209050601f8311600181146112445760008415611232578287015190505b61123c85826111be565b8655506112a4565b601f1984166112528661102e565b60005b8281101561127a57848901518255600182019150602085019450602081019050611255565b868310156112975784890151611293601f8916826111a0565b8355505b6001600288020188555050505b505050505050565b7f54686520636f6e747269627574696f6e206d757374206265206772656174657260008201527f207468616e20746865206d696e696d756d20616d6f756e742e00000000000000602082015250565b6000611308603983610a60565b9150611313826112ac565b604082019050919050565b60006020820190508181036000830152611337816112fb565b9050919050565b600061134982610907565b91507fffffffffffffffffffffffffffffffffffffffffffffffffffffffffffffffff820361137b5761137a610e4a565b5b600182019050919050565b7f4f6e6c7920617070726f766572732063616e20617070726f766520612072657160008201527f756573742e000000000000000000000000000000000000000000000000000000602082015250565b60006113e2602583610a60565b91506113ed82611386565b604082019050919050565b60006020820190508181036000830152611411816113d5565b9050919050565b7f54686520617070726f7665722068617320616c726561647920617070726f766560008201527f64207468697320726571756573742e0000000000000000000000000000000000602082015250565b6000611474602f83610a60565b915061147f82611418565b604082019050919050565b600060208201905081810360008301526114a381611467565b905091905056fea2646970667358221220f40021e28f8266b29af55aaf862a60d4f324262b4e18c858ba3af07b69b8849c64736f6c63430008120033",
  "linkReferences": {},
  "deployedLinkReferences": {}
}